:020000040800F2
:10000000282A00203D300008296000082B600008E5
:100010002F6000083360000837600008000000000F
:100020000000000000000000000000003B6000082D
:100030003D600008000000003F60000841600008CB
:100040005730000857300008573000085730000874
:100050005730000857300008573000085730000864
:100060003362000857300008573000085730000846
:100070005730000857300008573000085730000844
:100080005730000857300008573000085730000834
:100090005730000857300008573000083562000814
:1000A0005730000857300008573000085730000814
:1000B0005730000857300008573000085730000804
:1000C00057300008573000085730000857300008F4
:1000D00057300008C3600008796100082F620008EB
:1000E00037620008573000085730000857300008C2
:1000F00057300008573000085730000857300008C4
:1001000057300008573000085730000857300008B3
:100110003162000857300008573000085730000897
:100120005730000857300008573000085730000893
:1001300000F002F800F05CF80AA090E8000C82449D
:100140008344AAF10107DA4501D100F051F8AFF27A
:10015000090EBAE80F0013F0010F18BFFB1A43F0A5
:1001600001031847A4E70000C4E700000A444FF069
:10017000000C10F8013B13F0070408BF10F8014B06
:100180001D1108BF10F8015B641E05D010F8016B4B
:10019000641E01F8016BF9D113F0080F1EBF10F8AF
:1001A000014BAD1C0C1B09D16D1E58BF01F801CBD2
:1001B000FAD505E014F8016B01F8016B6D1EF9D555
:1001C0009142D6D37047000000230024002500266A
:1001D000103A28BF78C1FBD8520728BF30C148BFAA
:1001E0000B6070471FB50CF0E0FF1FBD10B510BDD0
:1001F0000CF0E8FF1146FFF7F5FF03F070F90DF082
:1002000006F803B4FFF7F2FF03BC02F037FF00006B
:100210000B49D1F800C04A685CF8043B10681844E8
:1002200042F8040B8C4528BFA1F1DC0C8A4228BFA0
:10023000A1F1DC02C1F800C04A6020F00040704724
:10024000541A00200CB50020019000906C48006802
:1002500040F480306A49086000BF6948006800F4D3
:10026000003000900198401C0190009818B9019846
:10027000B0F5A06FF1D16248006800F4003010B111
:100280000120009001E0002000900098012843D157
:100290005C48006840F010005A4908600846006851
:1002A00020F0030008600846006840F00200086083
:1002B00053484068524948600846406848600846CC
:1002C000406840F4806048600846406820F47C1034
:1002D00048600846406840F4E810486008460068F6
:1002E00040F08070086000BF4548006800F0007072
:1002F0000028F9D04248406820F003004049486097
:100300000846406840F00200486000BF3C48406832
:1003100000F00C000828F9D10CBD10B5FFF792FFD2
:1003200010BD10B53648006840F00100344908603F
:10033000084640683449084031494860084600682A
:10034000324908402E4908600846006820F48020A1
:1003500008600846406820F4FE0048604FF41F0023
:100360008860FFF7DAFF4FF000602949086010BD90
:1003700010B5002100200022214B5B6803F00C0126
:1003800021B1042906D0082928D107E0214B224CAD
:10039000236027E01F4B204C236023E0184B5B6851
:1003A00003F47010164B5B6803F48032022303EBF6
:1003B000904022B9194B4343174C23600DE0104B7A
:1003C0005B6803F4003323B1144B4343124C2360A6
:1003D00003E0104B4343104C236003E00D4B0E4CE5
:1003E000236000BF00BF064B5B68C3F303130C4CD4
:1003F000E15C094B1B68CB40074C236010BD00003B
:1004000000100240002002400000FFF8FFFFF6FE4F
:1004100008ED00E000127A000000002000093D0015
:1004200004000020DF48006840F00100DD4908605A
:1004300008464068DC490840DA49486008460068D8
:10044000DA490840D74908600846006820F480204F
:1004500008600846406820F4FE0048604FF41F0022
:1004600088607047CF49096821F48031CD4A116016
:100470001146096821F480211160B0F5803F03D056
:10048000B0F5802F0ED106E0C649096841F48031ED
:10049000C44A116007E0C349096841F4A021C14A78
:1004A000116000E000BF00BF704710B50146002298
:1004B000002300204A11012A02D1BA4C236806E029
:1004C000022A02D1B74C236A01E0B64C636A01F0FC
:1004D0001F02012494401C400CB1012000E00020C8
:1004E00010BD38B5002000900024002500BF312049
:1004F000FFF7DBFF05460098401C00900098B0F520
:10050000A06F01D0002DF2D03120FFF7CEFF08B14F
:10051000012400E00024204638BD01460020A14A05
:10052000106820F0F80040EAC10010607047A04950
:1005300008607047024600209A4B586820F47C10EF
:1005400042EA01031843974B586070479849086680
:10055000704701460020934A506820F0030008438A
:10056000506070478F48406800F00C0070470146AB
:1005700000208C4A506820F0F0000843506070471B
:1005800001460020874A506820F4E060084350602C
:10059000704701460020834A506820F4605040EACA
:1005A000C1005060704729B17E4A527A02437D4BA8
:1005B0005A7204E07B4A527A82437A4B5A727047ED
:1005C0007B49D8310860704701460020754A506861
:1005D00020F440400843506070470021714A2032A7
:1005E0001170704A82F82010012802D004280AD124
:1005F00004E001216B4A2032117005E00521694AAF
:100600002032117000E000BF00BF704769490860E8
:1006100070476449096A0143624A1162704765493B
:1006200044390860704730B50021002200240023BF
:100630005C4D6D6805F00C0121B1042905D0082935
:1006400023D105E05C4D056022E05B4D05601FE0B5
:10065000544D6D6805F47012524D6D6805F4803488
:10066000022505EB92421CB9544D554305600BE041
:100670004C4D6D6805F400351DB1504D5543056076
:1006800002E04D4D5543056002E04B4D056000BF53
:1006900000BF444D6D6805F0F0010909484D6B5CE1
:1006A0000568DD4045603F4D6D6805F4E061090A6D
:1006B000434D6B5C4568DD4085603A4D6D6805F4DF
:1006C0006051C90A3E4D6B5C4568DD40C560354DE3
:1006D0006D6805F44041890B3A4D6B5CC568B5FB0C
:1006E000F3F5056130BD29B12E4A526902432D4B05
:1006F0005A6104E02B4A526982432A4B5A6170477F
:1007000029B1284A92690243264B9A6104E0254A9E
:1007100092698243234B9A61704729B1214AD26979
:100720000243204BDA6104E01E4AD26982431D4B2A
:10073000DA61704729B11B4AD2680243194BDA606B
:1007400004E0184AD2688243164BDA60704729B138
:10075000144A12690243134B1A6104E0114A1269E8
:100760008243104B1A617047124940390860704744
:100770000F49C86470470B49C87170470948406AFF
:1007800040F0807007494862704701460020054AE2
:1007900092680A400AB1012000E000207047014938
:1007A00088727047001002400000FFF8FFFFF6FE5D
:1007B000000042428004424200127A0000093D00DB
:1007C000140000202400002031490143314A116007
:1007D000704770B5002100230F22C47804B32D4C5C
:1007E000246804F4E064C4F5E064210AC1F1040360
:1007F000CA40447804FA03F1847814402143090183
:10080000254C0678A155047804F01F050124AC405E
:1008100005786D11AD0005F1E025C5F8004109E04E
:10082000047804F01F050124AC401C4D06787611B5
:1008300045F8264070BD1A4A0A400243154B1B1F5B
:100840001A60704739B1134A121D12680243114BE6
:100850001B1D1A6006E00F4A121D126882430D4BE1
:100860001B1D1A607047042808D14FF0E021096968
:1008700041F004014FF0E022116107E04FF0E02168
:10088000096921F004014FF0E02211617047000076
:100890000000FA050CED00E000E400E080E100E07B
:1008A00080FFFF1F10B50446CC48844208D10121C7
:1008B0000420FFF73FFF00210420FFF73BFF46E045
:1008C000C748844208D101210820FFF733FF0021E7
:1008D0000820FFF72FFF3AE0C248844208D10121E7
:1008E0001020FFF727FF00211020FFF723FF2EE045
:1008F000BD48844208D101212020FFF71BFF0021C1
:100900002020FFF717FF22E0B848844208D10121D8
:100910004020FFF70FFF00214020FFF70BFF16E0FC
:10092000B348844208D101218020FFF703FF002152
:100930008020FFF7FFFE0AE0AE48844207D1012184
:100940008015FFF7F7FE0021A015FFF7F3FE10BD9D
:1009500010B501210846FFF7EDFE00210120FFF749
:10096000E9FE10BD2DE9F0410246002500260020D9
:1009700000230024002791F803C00CF00F0591F824
:1009800003C00CF0100CBCF1000F03D091F802C0B2
:100990004CEA050591F800C0BCF1000F31D0146895
:1009A00000202BE04FF0010C0CFA00F3B1F800C06E
:1009B0000CEA03069E4220D183004FF00F0C0CFA84
:1009C00003F7BC4305FA03FC4CEA040491F803C0A6
:1009D000BCF1280F06D14FF0010C0CFA00FCC2F854
:1009E00014C00AE091F803C0BCF1480F05D14FF0E4
:1009F000010C0CFA00FCC2F810C0401C0828D1D32E
:100A00001460B1F800C0BCF1FF0F34DD5468002061
:100A10002EE000F1080C4FF0010808FA0CF3B1F8D1
:100A200000C00CEA03069E4221D183004FF00F0C58
:100A30000CFA03F7BC4305FA03FC4CEA040491F8F2
:100A400003C0BCF1280F05D100F1080C08FA0CF81E
:100A5000C2F8148091F803C0BCF1480F07D100F12F
:100A6000080C4FF0010808FA0CF8C2F81080401C7E
:100A70000828CED35460BDE8F0814FF6FF710180A5
:100A8000022181700421C1707047024600209368E2
:100A90000B400BB1012000E0002070470146886840
:100AA00080B2704702460020D3680B400BB1012092
:100AB00000E0002070470146C86880B270470161BD
:100AC0007047416170470AB1016100E041617047C0
:100AD000C16070474FF480320A4382618161826154
:100AE00082698269704702460020434B18684FF6BE
:100AF0008073184040EA021008433F4B186070476B
:100B00003E49C8617047F0B50A4600230024002121
:100B1000002500F00046B6F1004F02D1364EF169D3
:100B200001E0354E7168C0F3034583B200F440160E
:100B3000B6F5401F08D121F070612F4E766826F07F
:100B400070662D4F7E6012E000F48016B6F5801FAF
:100B500006D1032606FA05F4A14341F0706106E0D0
:100B6000460D360103FA06F6B14341F0706122B139
:100B7000460D360103FA06F6314300F00046B6F1A1
:100B8000004F02D11C4EF16101E01B4E7160F0BDBF
:100B900030B500228B071C0F0F2303FA04F2164B0B
:100BA00008338C1053F824309343134C08348D10C1
:100BB00044F8253023468C1053F824308C07240F3A
:100BC00000FA04F423430C4C08348D1044F825300B
:100BD00030BD0A49DC310860704700000008014060
:100BE000000C0140001001400014014000180140B9
:100BF000001C014000200140000001400000204294
:100C000010B50446FB48844209D101218803FFF74F
:100C100091FD00214FF48040FFF78CFD32E0F64853
:100C2000844209D101214804FFF791FD00214FF4CE
:100C30000030FFF78CFD25E0F048844209D1012106
:100C40008804FFF784FD00214FF48020FFF77FFD2B
:100C500018E0EB48844209D10121C804FFF777FD71
:100C600000214FF40020FFF772FD0BE0E5488442BD
:100C700008D101210805FFF76AFD00214FF480101B
:100C8000FFF765FD10BD2DE9F04786B005460E461D
:100C90000024A24600BFA1460027B08900B100BFD2
:100CA0002F462C8A4CF6FF700440F08804432C82B7
:100CB000AC894EF6F3100440B0883189084371893D
:100CC00008430443AC81AC8A4FF6FF400440B0892E
:100CD0000443AC8201A8FFF7A6FCC648874202D1B4
:100CE000DDF810A001E0DDF80CA0A88900F40040B8
:100CF00040B10AEBCA0000EB0A1031684900B0FBB2
:100D0000F1F807E00AEBCA0000EB0A10316889002D
:100D1000B0FBF1F86420B8FBF0F004012009642175
:100D200001FB1089A88900F4004040B1322000EB9B
:100D3000C900B0FBF1F000F00700044308E03220E6
:100D400000EB09106421B0FBF1F000F00F00044348
:100D50002C8106B0BDE8F0874FF4165101600021E8
:100D60008180C18001810C214181002181817047F6
:100D700010B502460020108A4FF2FF0318400B887E
:100D80004C8823438C882343CC8823431843108208
:100D900010BD0021018041808180C180704721B158
:100DA000828942F40052828104E082894DF6FF7309
:100DB0001A4082817047F0B50346002400260025C2
:100DC000002040F66A17B94200D100BF1846C1F3AF
:100DD000421401F01F06012707FA06F5012C01D184
:100DE0000C3004E0022C01D1103000E014301AB1B4
:100DF00007682F43076002E00768AF430760F0BD54
:100E00001AB1838A0B43838202E0838A8B438382F5
:100E10007047028A4FF6F0731A400282028A0A4330
:100E20000282704782894FF2FF731A408281828961
:100E30000A438281704721B1828942F00202828195
:100E400004E082894FF6FD731A4082817047028A5E
:100E50004FF6DF731A400282028A0A430282704709
:100E600021B1028A42F48042028204E0028A4BF6F7
:100E7000FF731A4002827047C1F3080282807047F4
:100E800001468888C0F308007047818941F001015C
:100E900081817047028BD2B20283028B42EA012227
:100EA00002837047028B02F47F420283028B0A4363
:100EB0000283704721B1828A42F02002828204E0DC
:100EC000828A4FF6DF731A408282704721B1828A8C
:100ED00042F01002828204E0828A4FF6EF731A40D9
:100EE0008282704721B1828A42F00802828204E045
:100EF000828A4FF6F7731A408282704721B1828945
:100F000042F40042828103E08289C2F30E028281B0
:100F1000704721B1828A42F40062828204E0828AB0
:100F20004FF2FF731A4082827047828A4FF6FB733A
:100F30001A408282828A0A438282704721B1828A61
:100F400042F00202828204E0828A4FF6FD731A4068
:100F50008282704702460020B1F5007F00D100BFB9
:100F600013880B400BB1012000E00020704701F412
:100F70000072B2F5007F00D100BFCA430280704703
:100F800070B50246002400230025002040F66A16B2
:100F9000B14200D100BFC1F3421501F01F03012689
:100FA00006FA03F3012D02D19689334006E0022DA3
:100FB00002D1168A334001E0968A33400C12012692
:100FC00006FA04F41688344013B10CB1012000E095
:100FD000002070BD10B50022002340F66A14A14223
:100FE00000D100BF0A1201249440A3B2DC43048064
:100FF00010BD00000038014000440040004800409F
:10100000004C00400050004001460020FE4A10689D
:1010100000F03800084310607047FB49096821F070
:101020000801F94A116011460968014311607047CF
:10103000F549096821F01001F34A11601146096869
:10104000014311607047F148EF494860F04848603B
:101050007047EE48EC494860ED4848607047EA4800
:10106000006940F08000E84908617047E64800697F
:1010700040F08000E449086170470420E249C968F3
:1010800001F0010109B101200EE0DF49C96801F05A
:10109000040109B1022007E0DB49C96801F0100131
:1010A00009B1032000E00420704700B50246042384
:1010B000FFF7E3FF034603E0FFF7DFFF0346521E9F
:1010C000012B01D1002AF7D102B90523184600BD32
:1010D00030B5044604254FF43020FFF7E6FF0546FF
:1010E000042D17D1C848006940F00200C6490861C4
:1010F00008464461006940F0400008614FF4302028
:10110000FFF7D3FF0546C048006941F6FD7108406E
:10111000BD490861284630BD10B504244FF4302085
:10112000FFF7C3FF0446042C16D1B748006940F00E
:101130000400B54908610846006940F040000861B4
:101140004FF43020FFF7B1FF0446AF48006941F685
:10115000FB710840AC490861204610BD00B502464D
:101160000423FFF78AFF034603E0FFF786FF0346E9
:10117000521E012B01D1002AF7D102B905231846CE
:1011800000BD10B504244FF43020FFF7E7FF0446FC
:10119000042C16D19C48006940F004009A4908616B
:1011A0000846006940F0400008614FF43020FFF726
:1011B000D5FF04469448006941F6FB710840924906
:1011C0000861204610BD00208F49C96901F0020165
:1011D00009B1012000E00020704730B5A5250424A6
:1011E000FFF7F1FF00B100254FF43020FFF75DFF5E
:1011F0000446042C3AD18548834988608448886035
:101200000846006940F0200008610846006940F087
:10121000400008614FF43020FFF747FF0446042CDC
:101220001BD17948006941F6DF71084076490861B1
:101230000846006940F01000086176480580E00229
:10124000FFF733FF0446052C10D06F48006941F6C4
:10125000EF7108406C49086108E0052C06D06A4827
:10126000006941F6EF71084067490861204630BDCA
:1012700078B506460C46042500200090E802FFF7EA
:1012800014FF0546042D24D15F48006940F0010099
:101290005D4908613480E802FFF707FF0546042D29
:1012A00010D1B01C0090200C00990880E802FFF7D4
:1012B000FCFE05465448006941F6FE71084052495B
:1012C000086106E05048006941F6FE7108404E4949
:1012D0000861284678BD70B504460D460426F00224
:1012E000FFF7E3FE0646042E11D14748006940F09F
:1012F0000100454908612580F002FFF7D6FE064649
:101300004148006941F6FE7108403F490861304696
:1013100070BD70B505460E460424E002FFF7C5FE19
:101320000446042C17D1394837498860384888600A
:101330000846006940F0100008612E80E002FFF7C7
:10134000B4FE0446052C06D02F48006941F6EF7123
:1013500008402D490861204670BD2DE9F043044640
:101360004FF6FF763746B046B1460425E443E6B271
:10137000C4F30727C4F307484FEA1469E802FFF7EC
:1013800094FE0546042D49D120481F498860204815
:1013900088600846006940F010000861FF2E06D002
:1013A0001C4808300680E802FFF77FFE0546042D42
:1013B00008D1FF2F06D017480A300780E802FFF750
:1013C00074FE0546042D0AD1B8F1FF0F07D011486D
:1013D0000C30A0F80080E802FFF767FE0546042DF8
:1013E0000AD1B9F1FF0F07D00A480E30A0F80090DB
:1013F000E802FFF75AFE0546052D0FD002480069A6
:1014000041F6EF71084007E00020024023016745E4
:10141000AB89EFCD00F8FF1F664908612846BDE89B
:10142000F08330B5054604244FF43020FFF73DFE2D
:101430000446042C41D160485E4988605F4888605A
:101440000846006940F0200008610846006940F045
:10145000400008614FF43020FFF727FE0446042CBB
:1014600022D15448006941F6DF71084051490861B2
:101470000846006940F0100008611DB10020504985
:10148000088002E0A5204E4908804FF43020FFF785
:101490000CFE0446052C10D04648006941F6EF7159
:1014A00008404449086108E0052C06D0414800691D
:1014B00041F6DF7108403F490861204630BDF0B574
:1014C00005460E46174604243B483A4988603B4887
:1014D0008860E002FFF7E9FD0446042C19D1354885
:1014E000006940F010003349086147F0F8003043CC
:1014F00028433349891C0880E002FFF7D6FD0446E3
:10150000052C06D02B48006941F6EF7108402949A7
:1015100008612046F0BD2748C0698008704725480B
:10152000006A704700202349096801F0200109B1D1
:10153000012000E00020704729B11E4A12690243D1
:101540001C4B1A6104E01B4A12698243194B1A6151
:10155000704701460020012908D1164AD26902F0DD
:1015600001020AB1012008E0002006E0114AD26819
:101570000A400AB1012000E0002070470D49C86010
:10158000704704200B49C96801F0010109B101202D
:101590000EE00849C96801F0040109B1022007E022
:1015A0000449C96801F0100109B1032000E00420DA
:1015B000704700000020024023016745AB89EFCD52
:1015C00000F8FF1F10B50446BE48844208D101212F
:1015D0008014FFF7AFF80021A014FFF7ABF816E076
:1015E000B948844208D101210014FFF7B0F8002166
:1015F0002014FFF7ACF80AE0B448844207D1012177
:10160000C013FFF7A4F80021E013FFF7A0F810BD06
:1016100010B50022028802F441520B884C88234303
:101620008C882343CC8823430C8923434C89234350
:101630008C892343CC8923431A430280838B4FF246
:10164000FF74234083830B8A038210BD2DE9F04F82
:1016500085B005460C464FF0000902274FF0000800
:101660004FF0010B0026B246A88B4FF24001084014
:10167000A88302202884B5F81C90A068022801D114
:1016800000BF38E0A08810B94FF0010B01E04FF027
:10169000020B8D48854200D100E000BF6846FEF78E
:1016A000C2FFDDF800A0E088B0F5007F0AD14FEA64
:1016B0001A2000EB80004000A168B0FBF1F0401D53
:1016C00086B20BE04FEA4B10BAFBF0F000EB800063
:1016D0004000A168B0FBF1F0401D86B20A20B6FBC5
:1016E000F0F606F00108A6EB0800C0F34F074FF62E
:1016F000FF7000EA0828022F01DBFF2F02DD02271E
:101700004FF00008E08840EA080038432884A088A9
:10171000A1890843618808432188084340F4006098
:1017200040EA0909A5F81C9005B0BDE8F08F00213A
:10173000018041808180C180018141818181C1819D
:101740000721018270470021018041808180C18092
:101750000221816000218181704721B1028842F01D
:101760004002028004E002884FF6BF731A400280F4
:10177000704721B1828B42F48062828304E0828BC5
:101780004FF6FF331A408283704730B500240023A0
:101790000C110125A540ABB21AB185881D43858087
:1017A00002E085889D43858030BD1AB183880B4354
:1017B000838002E083888B438380704781817047F8
:1017C0000146888970474FF6FF62914204D0028833
:1017D00042F48072028004E002884FF6FF631A40F0
:1017E0000280704721B1828842F00402828004E0C6
:1017F00082884FF6FB731A408280704702884FF24E
:10180000FF731A40028002880A43028070470188F1
:1018100041F480510180704721B1028842F40052A6
:10182000028004E002884DF6FF731A400280704780
:1018300002460020012901D0108B00E0908A7047F9
:101840000146088A7047B1F5804F04D1028842F4FE
:101850008042028004E002884BF6FF731A40028047
:1018600070470246002013890B400BB1012000E0B5
:1018700000207047CA4302817047F0B5024600203D
:1018800000240023002501F00F070126BE40B4B25A
:101890000B1101269E40B3B2968806EA030516890D
:1018A000264016B10DB1012000E00020F0BD10B5BA
:1018B000002201F00F040123A3409AB2D343038115
:1018C00010BD00000030014000380040003C0040E6
:1018D00010B50446FE48844208D10121C014FEF729
:1018E00029FF0021E014FEF725FFC4E0B4F1804F8A
:1018F00008D101210846FEF72AFF00210120FEF74A
:1019000026FFB8E0F348844208D101210220FEF707
:101910001EFF00210220FEF71AFFACE0EE488442D1
:1019200008D101210420FEF712FF00210420FEF758
:101930000EFFA0E0E948844208D101210820FEF70B
:1019400006FF00210820FEF702FF94E0E4488442ED
:1019500008D101211020FEF7FAFE00211020FEF729
:10196000F6FE88E0DF48844208D101212020FEF7FE
:10197000EEFE00212020FEF7EAFE7CE0DA488442F9
:1019800008D101214014FEF7D5FE00216014FEF7B6
:10199000D1FE70E0D548844209D10121C804FEF788
:1019A000C9FE00214FF40020FEF7C4FE63E0D048DA
:1019B000844209D101210805FEF7BCFE00214FF445
:1019C0008010FEF7B7FE56E0CA48844209D10121D3
:1019D0004805FEF7AFFE00214FF40010FEF7AAFE07
:1019E00049E0C548844208D101214020FEF7AFFEFE
:1019F00000214020FEF7ABFE3DE0C048844208D104
:101A000001218020FEF7A3FE00218020FEF79FFE2B
:101A100031E0BB48844208D101218015FEF797FED2
:101A20000021A015FEF793FE25E0B648844209D1B7
:101A300001210804FEF77EFE00214FF48030FEF7FE
:101A400079FE18E0B048844209D101214804FEF72C
:101A500071FE00214FF40030FEF76CFE0BE0AB4846
:101A6000844208D101218804FEF764FE00214FF46E
:101A70008020FEF75FFE10BD00220288944B984242
:101A80000ED0994B98420BD0B0F1804F08D0914BBB
:101A9000984205D0904B984202D0904B984204D186
:101AA0004FF68F731A404B881A438D4B984207D0DC
:101AB0008C4B984204D04FF6FF431A40CB881A4310
:101AC00002808B8883850B880385814B98420BD0DD
:101AD000854B984208D08B4B984205D08A4B984250
:101AE00002D08A4B984201D10B7A0386012383826C
:101AF000704770B5002400220023058C4FF6FE7657
:101B000035400584028C8388048B4FF68F752C40FA
:101B1000B51E2C400D882C43751E2A400D892A4382
:101B20004D882A436A4DA8420BD06F4DA84208D079
:101B3000744DA84205D0744DA84202D0734DA842FE
:101B400013D14FF6F7752A404D892A434FF6FB759E
:101B50002A408D882A434FF6FF652B404FF6FF55EC
:101B60002B408D892B43CD892B4383800483CD88E3
:101B70008586028470BD70B5002400220023058C88
:101B80004FF6EF7635400584028C8388048B48F647
:101B9000FF752C404FF6FF452C400D884FF6FF7621
:101BA00006EA05252C434FF6DF752A400D8906EA23
:101BB00005152A434D8806EA05152A43444DA842D7
:101BC00002D0494DA8421DD14FF67F752A404D895C
:101BD0004FF6FF7606EA05152A434FF6BF752A40F1
:101BE0008D8806EA05152A434FF6FF352B404FF244
:101BF000FF752B408D8906EA85052B43CD8906EAC2
:101C000085052B4383800483CD880587028470BDBE
:101C100070B5002400220023058C4FF6FF66354086
:101C20000584028C8388848B4FF68F752C404FF689
:101C3000FC752C400D882C434FF6FF552A400D892A
:101C40004FF6FF7606EA05252A434D8806EA052564
:101C50002A431F4DA84202D0234DA8421DD14FF266
:101C6000FF752A404D894FF6FF7606EA05252A437F
:101C70004FF6FF352A408D8806EA05252A434EF6A1
:101C8000FF752B404DF6FF752B408D8906EA051533
:101C90002B43CD8906EA05152B4383808483CD88A9
:101CA0008587028470BD70B5002200230024058C56
:101CB0004EF6FF7635400584038C8488828B48F687
:101CC000FF752A404FF6FF452A400D8820E00000AE
:101CD000002C01400004004000080040000C0040BF
:101CE000001000400014004000340140004C01404E
:101CF000005001400054014000180040001C00400A
:101D000000200040004001400044014000480140E4
:101D10004FF6FF7606EA05252A434DF6FF752B4060
:101D20000D8906EA05352B434D8806EA05352B4318
:101D3000FA4DA84202D0FA4DA84208D14BF6FF75E1
:101D40002C408D894FF6FF7606EA85152C4384805A
:101D50008283CD88A0F84050038470BD828B4FF2FF
:101D6000FF331A408283828B4FF6FF7303EA01230D
:101D70001A4382837047F0B50C46154600220021B5
:101D80000026078C4EF6FF7C07EA0C070784828B3F
:101D9000018C4FF6FF7707EA043640F6FF473A40DA
:101DA0004FF6FF7707EA05273A434FF6FF7707EA32
:101DB00003373A43D94FB8420ED0D94FB8420BD06F
:101DC000B0F1804F08D0D74FB84205D0D64FB842B7
:101DD00002D0D64FB84206D14DF6FF77394046F4CF
:101DE0008057394305E047F6FF57394044F48057A0
:101DF000394382830184F0BD828B4FF6F3731A401E
:101E00008283828B0A4382837047F0B50C46154665
:101E1000002200210026078C4FF6FF6C07EA0C0712
:101E20000784828B018C4FF6FF7707EA04264FF672
:101E30000C773A404FF6FF7707EA03172F433A43F0
:101E4000B64FB8420ED0B64FB8420BD0B0F1804F6B
:101E500008D0B44FB84205D0B34FB84202D0B34F08
:101E6000B84206D14FF6FF57394046F480773943E0
:101E700005E04FF2FF57394044F4807739438283BD
:101E80000184F0BD028B4FF2FF331A400283028BB4
:101E90004FF6FF7303EA01231A4302837047F0B53C
:101EA0000C461546002200210026078C4FF6EF7CD9
:101EB00007EA0C070784028B018C4FF6FF7707EACD
:101EC000041640F6FF473A404FF6FF7707EA03371C
:101ED0003A434FF6FF7707EA05273A438F4FB84258
:101EE0000ED08F4FB8420BD0B0F1804F08D08D4F3D
:101EF000B84205D08C4FB84202D08C4FB84206D1C0
:101F00004FF6DF77394046F01007394305E04FF6CA
:101F10005F77394044F01007394302830184F0BDF4
:101F2000028B4FF6F3731A400283028B0A4302833B
:101F30007047F0B50C46154600220021068C4FF67E
:101F4000FE773E400684028B018C4FF60C763240C1
:101F50007E1C06EA03162E433243704EB0420ED06A
:101F60006F4EB0420BD0B0F1804F08D06D4EB042F2
:101F700005D06D4EB04202D06C4EB04206D14FF645
:101F8000FD76314044F00106314305E04FF6F57629
:101F9000314044F00106314302830184F0BD70B545
:101FA00005460C465D4885420ED05D4885420BD003
:101FB000B5F1804F08D05B48854205D05A4885422C
:101FC00002D05A48854200D100E000BF208850B9B5
:101FD0002389A28861882846FFF7ABFFE18828465D
:101FE000FFF79EFF25E0208804280AD12389A288D4
:101FF00061882846FFF753FFE1882846FFF742FF34
:1020000017E0208808280AD12389A28861882846F9
:10201000FFF7FBFEE1882846FFF7EEFE09E0238983
:10202000A28861882846FFF7A6FEE1882846FFF7C8
:1020300095FE70BD2DE9F04105460C4600260127AE
:10204000608808B9022600E00026A088012801D196
:10205000022700E001272088A0B92389A28861888F
:102060002846FFF766FFE1882846FFF759FF2389D6
:102070003A4631462846FFF712FFE1882846FFF727
:1020800001FF13E02389A28861882846FFF707FF34
:10209000E1882846FFF7F6FE23893A46314628466E
:1020A000FFF747FFE1882846FFF73AFFBDE8F081D8
:1020B0000A884B881A438B881A43CB881A430B89AA
:1020C0001A434B891A438B891A43A0F8442070475E
:1020D0004FF6FF71818000210180C1804180017233
:1020E00070470021018041808180C1800181418150
:1020F0008181C1817047002101804180012181805F
:102100000021C180018170470021018041808180D0
:10211000C18001814181818170470000002C014014
:10212000003401400004004000080040000C004062
:1021300021B1028842F00102028004E002884FF6D9
:10214000FE731A400280704731B1B0F8442042F467
:102150000042A0F8442005E0B0F84420C2F30E028B
:10216000A0F8442070471AB183890B43838102E0B1
:1021700083898B43838170478182704741EA0203E0
:10218000A0F8483070471AB183890B43838102E07D
:1021900083898B438381704701894FF6F872114020
:1021A000018170470A46002101894FF68F7319405B
:1021B00011430181704730B504460D46294620463B
:1021C000FFF7F0FF208940F00700208130BD2DE9A6
:1021D000F04104460D4616461F46602D06D13B468B
:1021E000012231462046FFF75AFE05E03B46012218
:1021F00031462046FFF79DFE29462046FFF7D2FFD5
:10220000208940F007002081BDE8F08130B50C4600
:1022100000210189C9B24FF6FF7505EA0325154370
:1022200025432943018130BD2DE9F04105460E4685
:1022300017469846002443463A4631462846FFF75B
:10224000E5FF2C894FF6F870044044F007044FF680
:102250008F70044044F070042C81BDE8F081F0B52B
:1022600004460D4616461F463B4632462946204642
:10227000FFF7CCFF208940F480402081F0BD01852C
:10228000828270470A46002101884FF68F731940F9
:10229000114301807047F0B50C4615461E460021DB
:1022A000002200230189028B038C4FF6F877394016
:1022B00021434FF6FC473A4040F201173A434FF6AC
:1022C000DD773B404FF6FF7707EA06172F433B4386
:1022D000018102830384F0BD0A460021018B4FF681
:1022E0008F7319401143018370470A460021018B07
:1022F00048F6FF7319404FF6FF7303EA02231943B0
:10230000018370470A460021818B4FF68F73194075
:102310001143818370470A460021818B48F6FF7381
:1023200019404FF6FF7303EA022319438183704774
:1023300021B1028842F08002028004E002884FF658
:102340007F731A400280704721B1828842F00402F4
:10235000828004E082884FF6FB731A4082807047C7
:1023600021B1828842F00802828004E082884FF620
:10237000F7731A408280704721B1828842F00102CF
:10238000828004E082884FF6FE731A408280704794
:102390000A460021018B4FF6F77319401143018360
:1023A00070470A460021018B4FF2FF7319404FF628
:1023B000FF7303EA02231943018370470A46002191
:1023C000818B4FF6F77319401143818370470A469A
:1023D0000021818B4FF2FF7319404FF6FF7303EA20
:1023E00002231943818370470A460021018B4FF66F
:1023F000FB7319401143018370470A460021018B8A
:102400004FF6FF3319404FF6FF7303EA02231943D7
:10241000018370470A460021818B4FF6FB731940F8
:102420001143818370470A460021818B4FF6FF33A9
:1024300019404FF6FF7303EA022319438183704763
:102440000A460021018B4FF67F7319401143018327
:1024500070470A460021018BC1F30E014FF6FF734E
:1024600003EA02231943018370470A460021818B46
:102470004FF67F7319401143818370470A4600214C
:10248000818BC1F30E014FF6FF7303EA0223194358
:10249000818370470A460021018C4FF6FD73194075
:1024A0001143018470470A460021018C4FF6F773EF
:1024B00019401143018470470A460021018C4FF6F0
:1024C000DF7319404FF6FF7303EA021319430184C7
:1024D00070470A460021018C4FF67F7319404FF672
:1024E000FF7303EA02131943018470470A4600216F
:1024F000018C4FF6FF5319404FF6FF7303EA022396
:102500001943018470470A460021018C4FF2FF7382
:1025100019404FF6FF7303EA022319430184704701
:102520000A460021018C4DF6FF7319404FF6FF73E8
:1025300003EA023319430184704730B500230124B4
:102540008C40A3B2048C9C430484048C02FA01F5F1
:10255000ADB22C43048430BD30B5002304248C403C
:10256000A3B2048C9C430484048C02FA01F5ADB23E
:102570002C43048430BD70B5034600200024184667
:10258000183001258D40ACB21D8CA5431D8409B1C6
:10259000082909D100EB6100056825F07005056088
:1025A0000568154305600EE00D1FC5F34E05284470
:1025B000056825F4E045056005684FF6FF7606EAF4
:1025C00002263543056070BD21B1028842F0020247
:1025D000028004E002884FF6FD731A4002807047C3
:1025E00021B1028842F00402028004E002884FF622
:1025F000FB731A400280704721B1828842F080024A
:10260000828004E082884FF67F731A408280704790
:1026100002884FF6F7731A40028002880A4302804C
:10262000704782884FF68F731A40828082880A43EF
:102630008280704702894FF6F8731A40028102893E
:102640000A430281704702894FF67F731A40028164
:1026500002890A43028170478184704781857047EF
:10266000818670470187704781877047A0F84010C6
:10267000704702884FF6FF431A40028002880A43DF
:10268000028070470146888E70470146088F704768
:102690000146888F70470146B1F8400070470146F7
:1026A000888C70470146088D704702460020138AC7
:1026B0000B400BB1012000E000207047CA430282AA
:1026C000704730B50246002000230024158A05EA31
:1026D0000103958905EA010413B10CB1012000E062
:1026E000002030BDCA4302827047000010B5044686
:1026F000FA48844208D101214015FEF71BF8002159
:102700006015FEF717F817E0F548844208D101215B
:102710000015FEF70FF800212015FEF70BF80BE06F
:10272000F048844208D10121C803FEF703F80021D4
:102730004FF40040FDF7FEFF10BD30B5024600200B
:1027400000235068E84C20400D790C6844EA0524C9
:10275000204350609068E54C2040D1E902542C435E
:102760004D7944EA450420439060D06A20F470001B
:102770000C7C641EE4B2234340EA0350D06230BDB7
:1027800000210160017141718160C160012101740A
:10279000704721B1826842F00102826003E08268E2
:1027A00022F001028260704721B1826842F4807297
:1027B000826003E0826822F480728260704710B504
:1027C0000023CBB21AB144681C43446002E0446861
:1027D0009C43446010BD816841F0080181607047EE
:1027E000014600208A6802F008020AB1012000E0D8
:1027F00000207047816841F0040181607047014604
:1028000000208A6802F004020AB1012000E00020E2
:10281000704721B1826842F4A002826003E08268BE
:1028200022F4A00282607047014600208A6802F408
:1028300080020AB1012000E00020704710B50A466E
:1028400000210023416821F46041531E41EA4331D5
:10285000416010BD21B1426842F40062426003E071
:10286000426822F4006242607047F0B504460D46AB
:1028700000200021092D11DDE068A5F10A0606EB14
:102880004607072606FA07F18843A5F10A0606EB74
:10289000460603FA06F10843E0600CE0206905EB08
:1028A0004507072606FA07F1884305EB450603FAB4
:1028B00006F108432061072A0FDA606B561E06EB0B
:1028C00086071F2606FA07F18843561E06EB860682
:1028D00005FA06F10843606322E00D2A0FDA206B47
:1028E000D61F06EB86071F2606FA07F18843D61F78
:1028F00006EB860605FA06F10843206310E0E06A5D
:10290000A2F10D0606EB86071F2606FA07F188439B
:10291000A2F10D0606EB860605FA06F10843E06211
:10292000F0BD21B1826842F48012826003E08268C7
:1029300022F48012826070470146C86C80B27047F2
:1029400066484C300068704721B1426842F48062AA
:10295000426003E0426822F480624260704721B125
:10296000426842F48052426003E0426822F480529E
:10297000426070470A460021816821F4E04111431A
:102980008160704721B1826842F40042826003E0B6
:10299000826822F400428260704721B1826842F46A
:1029A0000212826003E0826822F4021282607047A1
:1029B000014600208A6802F400120AB1012000E0FA
:1029C00000207047F0B5044615460020002200267E
:1029D000092911DDE068A1F10A0707EB470C072779
:1029E00007FA0CF29043A1F10A0707EB470703FA35
:1029F00007F21043E0600CE0206901EB410C07276F
:102A000007FA0CF2904301EB410703FA07F2104377
:102A10002061A06BC0F30156EF1C06F1010CA7EB7F
:102A20000C0707EB870C1F2707FA0CF29043EF1CEB
:102A300006F1010CA7EB0C0707EB870701FA07F279
:102A40001043A063F0BD10B50A4600210023816B3E
:102A500021F44011531E41EA0351816310BD08B5B2
:102A6000002300930090009B0B440093009B1A608E
:102A700008BD08B5024600200090009201F1280030
:102A8000009B184400900098006880B208BD0A4678
:102A900000214168164B1940114341607047416263
:102AA000826270470A460021416821F01F011143EC
:102AB0004160704740B109490831096841F400019B
:102AC000064A0832116007E004490831096821F418
:102AD0000001024A083211607047000000240140E2
:102AE00000280140003C0140FFFEF0FFFDF7F1FF30
:102AF000FFFD3FFF0246002013680B400BB1012091
:102B000000E000207047CA430260704770B502467B
:102B10000020002300240B125568CEB205EA0604FB
:102B200015681D4015B10CB1012000E0002070BDFA
:102B300000220A12D343036070470000002044497A
:102B40000860091D0860091D0860091D08604148EA
:102B50003F4914310860704700213D498279002ABD
:102B60003AD00A46126803689A430B461A600A1D57
:102B7000126803689A430B1D1A60027911440A68AF
:102B800003681A430A60324A0832126803689A439B
:102B90002F4B08331A601A1D126803689A432C4B96
:102BA0000C331A604279102A0ED11A1F126803687A
:102BB0001A43274B08331A601A1D126803681A4318
:102BC000234B0C331A600DE02149427911440A6805
:102BD00003681A430A6005E0027911440A68036831
:102BE0009A430A6070470021016001710C21417114
:102BF0000021817170471649103109680143144A58
:102C000010321160704701460020114A14321268D8
:102C10000A400AB1012000E0002070470C4914313D
:102C200008607047014600200022094B1B6803EA38
:102C30000102074B14331B680B4013B10AB101208A
:102C400000E000207047024914310860704700001E
:102C500000040140FFFF0F0001684FF6FE721140B3
:102C600001600021016041608160C1608D4988423E
:102C700008D18C490839496841F00F01894A083A5E
:102C800051608AE087491431884208D18549083962
:102C9000496841F0F001834A083A51607DE081497A
:102CA0002831884208D17F490839496841F4706168
:102CB0007C4A083A516070E07A493C31884208D138
:102CC00078490839496841F47041764A083A5160B8
:102CD00063E074495031884208D172490839496823
:102CE00041F470216F4A083A516056E06D496431F1
:102CF000884208D16B490839496841F47001694A32
:102D0000083A516049E067497831884208D16549FD
:102D10000839496841F07061624A083A51603CE004
:102D20006149884206D1011F096841F00F01021F65
:102D3000116032E05C491431884208D15A49091FB8
:102D4000096841F0F001584A121F116025E0564908
:102D50002831884208D15449091F096841F470613B
:102D6000514A121F116018E04F493C31884208D186
:102D70004D49091F096841F470414B4A121F116007
:102D80000BE049495031884207D14749091F09687A
:102D900041F47021444A121F1160704710B500229F
:102DA000026847F6F0739A430C6A8B6823430C69F8
:102DB00023434C6923438C692343CC6923434C6AE6
:102DC00023438C6A23431A430260CB6843600B6839
:102DD00083604B68C36010BD002101604160816069
:102DE000C160016141618161C161016241628162D1
:102DF000704721B1026842F00102026004E00268FB
:102E00004FF6FE731A40026070471AB103680B4315
:102E1000036002E003688B430360704741607047C2
:102E20000146486880B2704701460020002201F048
:102E300080531BB11C4B083B1A6802E0194B083B3E
:102E40001A6802EA01030BB1012000E0002070477C
:102E500000F0805119B11449091F086002E01149BE
:102E600008394860704701460020002201F0805375
:102E70001BB10D4B083B1A6802E00A4B083B1A686D
:102E800002EA01030BB1012000E00020704700F0CE
:102E9000805119B10449091F086002E0014908394D
:102EA00048607047080002400804024010B5012045
:102EB000FDF75AFC0020FDF757FC10BD2A490860B9
:102EC00070472949091F0860704727498431086005
:102ED000704701460020254A10884FF67F42104077
:102EE0000843224A10807047014600201F4A10887C
:102EF0004FF68072104008431C4A1080704708B596
:102F000000220092194A2C3A0092009A0244009240
:102F1000009A116008BD08B50146002000901348D2
:102F20002C3800900098084400900098008808BD54
:102F30000D489C300068C0B270470C4808300088CB
:102F400040F0010009490831088070470648A03068
:102F50000068C0B2704705480830008840F00200A1
:102F6000024908310880704704860D422C6C0040ED
:102F700010B501210807FDF7EAFB00214FF0805052
:102F8000FDF7E5FB10BD2A49086270472849086132
:102F9000704701460020274A106820F0E0000843EF
:102FA000106070472249A0310860704710B5024692
:102FB0000020204B186820F00300104318601E4BBF
:102FC0001B6843F004031C4C2360012901D130BF6E
:102FD00000E020BF184B1B6823F00403164C23604D
:102FE00010BD1448006840F004001249086008460B
:102FF000006840F0020008600F48006840F00400DC
:103000000D49086000BF00BF30BF70470146002077
:10301000084A52680A400AB1012000E000207047C7
:103020000449096841EA8001024A116070470000C2
:1030300000000E420070004010ED00E0094880479B
:1030400009480047FEE7FEE7FEE7FEE7FEE7FEE78A
:10305000FEE7FEE7FEE7FEE704480549054A064BA2
:10306000704700002303000831010008C01A002047
:10307000282A0020C01C002028260020014600BF6E
:1030800070474AF6AA20FE490860704745F255523B
:10309000FB4B1A601A46506091604AF6AA221A60E9
:1030A0004CF6CC421A60704710B500214FF000601A
:1030B000FDF7C1FB4FF4C060FDF786FB2520F14909
:1030C000087000204870032088700120C8700846EE
:1030D000FDF77FFB2620EB49087000204870022096
:1030E00088700120C8700846FDF773FB0320E5498E
:1030F000087001204870002088700120C8700846C0
:10310000FDF767FB2820DF490870012048708870B0
:10311000C8700846FDF75DFB10BD1CB5FFF70EFD3E
:103120000B210020FDF734FD4FF4006000900020DB
:103130008DF8040008208DF8050001208DF80600A8
:103140006846FFF709FD1CBD10B50120CE498880F7
:10315000472008800020C88010204880CB48FEF718
:103160008BFCCB48FEF7B4FB40F6FF70C649888065
:1031700000200880C88008724880C548FEF77CFCA3
:103180007020C44908800120488000208880C880C1
:1031900002200881002048814FF48070888100203F
:1031A000C881BB48FEF7E7FC0821B948FFF7F9F8EA
:1031B0000121B748FFF7BCF80121B548FEF7B8FF79
:1031C00010BD08B50121B448FDF79DFC0120FFF7B3
:1031D000DAFE0020FDF71AFA0020FFF772FE002049
:1031E000FFF7D1FE4FF44240ADF8000003208DF808
:1031F000020014208DF803006946A848FDF7B2FBD1
:103200004FF47470ADF8000003208DF80200142014
:103210008DF803006946A248FDF7A4FB4FF4114066
:10322000ADF8000003208DF8020014208DF8030093
:1032300069469C48FDF796FB0820ADF80000032086
:103240008DF8020014208DF8030069469448FDF7BC
:1032500089FB02208DF802000420ADF80000142044
:103260008DF8030069468E48FDF77CFB0120ADF820
:10327000000002208DF8020010208DF8030069463E
:103280008648FDF76FFB0020874908604FF44050E7
:10329000ADF8000004208DF8030003208DF8020033
:1032A00069467E48FDF75EFB0420ADF800008DF80E
:1032B000030003208DF8020069467C48FDF752FBAD
:1032C0004FF40050ADF8000004208DF803000220F8
:1032D0008DF8020069467248FDF744FB4FF4006028
:1032E000ADF8000004208DF8030003208DF80200E3
:1032F00069466C48FDF736FB4FF48070ADF800006E
:1033000010208DF8030003208DF802006946634801
:10331000FDF728FB4FF480716048FDF7D0FB4FF4B8
:103320008040ADF8000010208DF8030002208DF8D9
:10333000020069465A48FDF715FB4FF48041584892
:10334000FDF7BDFB4020ADF8000010208DF8030014
:1033500003208DF8020069465048FDF703FB402129
:103360004E48FDF7ACFB3820ADF8000003208DF887
:10337000020018208DF8030069464848FDF7F2FA6C
:103380000120ADF8000003208DF8020010208DF818
:10339000030069464348FDF7E5FA01214148FDF77E
:1033A0008EFB0120ADF8000003208DF802001020F4
:1033B0008DF8030069463A48FDF7D4FA01213848F0
:1033C000FDF77DFB02208DF80200C002ADF8000081
:1033D00010208DF8030069463148FDF7C3FA02203A
:1033E0008DF802008002ADF8000014208DF8030073
:1033F00069462B48FDF7B6FA02208DF8020040021C
:10340000ADF8000010208DF8030069462448FDF750
:10341000A9FA8020ADF8000018208DF803000320E1
:103420008DF8020069461D48FDF79CFA08BD10B5ED
:1034300001213D20FDF764F901218803FDF760F9C2
:1034400001214804FDF769F901218804FDF765F9B8
:103450000121C804FDF761F901210846FDF75DF976
:1034600001210220FDF759F901210420FDF755F94A
:1034700001210846FDF737F90121480218E0000054
:103480000030004074000020BC090020000400400F
:1034900000080040C609002000023000000C014076
:1034A00000100140000801408081214200140140C9
:1034B000FDF726F90121C803FDF72FF910BD0146DC
:1034C00048F6A04005E000E0401E0028FCD148F688
:1034D000A0400A1EA1F1010399B2F4D170474FF444
:1034E000C870FFF7ECFFFFF7A2FFFFF76AFE4FF48B
:1034F0009670FFF7E4FFFFF79AFFFFF762FE784947
:10350000481EB0F1807F00D31BE0481E4FF0E02240
:10351000506150170F22002807DA13071D0E714B58
:1035200000F00F04241F1D5503E013071C0E6E4B03
:103530001C5400BF00204FF0E02290610720106172
:1035400000BFFFF701FE02F0C5FE00F099FB00F09E
:10355000CAFB00F0ADFC09F0B4FDFFF7DEFD01F0A1
:10356000C9FE02F00BFB06F039FEFFF79DFD01F0EE
:10357000DEFD01205D4908704FF4487006F0F7F950
:1035800006F01AF800F0C8F800F037F940F2E2410E
:103590000520FFF77BFD4FF47A705549088040F213
:1035A000592054490880012053490860002053499C
:1035B000C1F8B80101205049091F08600020504996
:1035C0000860012008604F49A1F88A055CE000F01E
:1035D0006FFC01F073FC4B488089B0F5345F06D076
:1035E00048488089B0F5614F01D000F007F900F03C
:1035F00081FE00F0E7FB00F029FD02F02EFA01F059
:10360000A0FE01F08CFF02F0F8FC02F0C2FA02F01A
:1036100067FBFFF736FD00F00CFA00F01BFB3948A2
:10362000B0F82E03012802DB01F0FFFD00E000BF2F
:103630003548007820B903F0A6F801203249087017
:103640003148007801281FD12E488089B0F5345FB9
:103650001AD005F0F3FB05F01EFE2C4880782C49AB
:103660000978884210D0294880782949087007F0E5
:10367000C5F8AA2804D1FFF704FD07F039FE03E0DE
:10368000FFF7FFFC07F03CF9A1E77047704731B541
:10369000BDF8004001211F48FEF74AFD21461D48A4
:1036A000FEF7DAFF03E01B48FEF7F9FF0446012CA2
:1036B000F9DC00211748FEF73BFD38BD31B5002489
:1036C00005E04FF47A70FFF7E2FF601C84B2BDF8AA
:1036D00000008442F5DB38BDC2684A40C2607047D2
:1036E0004019010018ED00E000E400E02A0100208C
:1036F0008401002082010020BC01224200002242FD
:1037000098812142E201002078000020C0010020C1
:10371000790000200004004010B5FE48FFF79CFA35
:10372000FD48FE490860FE4848600020886060202F
:10373000C8600020086180204861400088618000E6
:10374000C861202008620002486200208862F148B7
:10375000FFF724FB0121EF48FFF74BFB0020F14965
:1037600008600120087148714FF4602088600020D3
:10377000C86003200874E8484C38FEF7DEFF0523D4
:1037800001220421E4484C38FFF76FF80523022298
:103790001946E1484C38FFF768F807230322102147
:1037A000DD484C38FFF761F80121DB484C38FEF763
:1037B000FBFF0121D8484C38FEF7EBFF0120FFF753
:1037C00079F9D5484C38FFF706F800BFD2484C3895
:1037D000FFF706F80028F9D1CF484C38FFF70AF870
:1037E00000BFCD484C38FFF70AF80028F9D1012175
:1037F000C9484C38FFF70DF810BD70477CB5CA4872
:103800004078CA490978884257D0C94800780028CA
:1038100053D1C5484078C5490870C6480088401C47
:10382000C449088008460088142846DD6420BF4942
:1038300008700020BF490880684609F02DFB00246D
:1038400016E01DF80400C21700EB12721211A0EB73
:1038500002121DF80410CB1701EB13731B1103EBBD
:10386000830302EB4302D2B20DF80420601CC4B201
:10387000072CE6DB00240CE01DF80410AE4A04F52A
:10388000C37022F810101DF80400AC490855601CE4
:10389000C4B2052CF0DB9DF80500A749A1F8180378
:1038A0009DF8060000F5FA60A1F816039DF80500E2
:1038B000A24988719DF8060048719D48007800284B
:1038C0006ED0994840789E490978884268D09648D9
:1038D00040789B4908709B480088401C99490880A3
:1038E000084600880A2808DD9748007828B9902003
:1038F0008DF800000120944908709248008814282F
:1039000038DD91480078012834D19048008800F5CE
:10391000C370894931F810508C480088052808D1B7
:10392000A5F5FA6085B289480088401C874908805F
:103930000AE086480088062805D184480088401E91
:103940008249088000E000BF0A2095FBF0F100FBEF
:10395000115195FBF0F001EB001085B2E8B28DF843
:1039600000009DF80010794A107809F081FA0220D1
:1039700075490870734800881E2811DD7248007868
:1039800002280DD180208DF8000000206E490870BB
:1039900064206B49087000206A49088064490870F7
:1039A0006548B0F80C033C2803DD1E21002009F017
:1039B0005FFA7CBD30B50246002320245E4DA5F899
:1039C000D040002129E001EB41041444544D35F866
:1039D0001440234442B901EB4104144435F8144027
:1039E0005B4D25F8114016E0012A09D101EB410495
:1039F00014444B4D35F81440564D25F811400AE05B
:103A0000022A08D101EB41041444454D35F8144015
:103A1000514D25F811404C1CA1B2474CB4F8D04090
:103A20008C42D0DC444CB4F8D040B3FBF4F4A0B2E8
:103A300030BD3EB53C48407848490978884234D08A
:103A4000394840784549087045480088401C444939
:103A5000088008460088212827DD0020088041488A
:103A60000078401C3F49087008460078032801DBB5
:103A7000002008703B48007828B90020FFF79AFF23
:103A80003949088011E037480078012804D1FFF750
:103A900091FF3549488008E032480078022804D177
:103AA000FFF788FF2449A1F822032348B0F8220336
:103AB00046F2A811484340F6FF7190FBF1F00290E6
:103AC00043F2DC710298081A01906421019848437E
:103AD0002B2190FBF1F000F6C4100A2190FBF1F0CD
:103AE00000901548C08D0099081A1349A1F83403B5
:103AF0001D480088A1F880031B484088A1F8820374
:103B0000194800880989884233DD174800880A4926
:103B100009892BE0080002404C240140EC090020F8
:103B2000280A0020D8090020C00100208E000020B3
:103B30006200002090000020E2010020C901002066
:103B400092000020940000209600002064000020D5
:103B5000E80C0020280D0020680D0020080100203E
:103B60000A010020B1000020D2010020401A84B2D6
:103B700000E00024FC48B0F8CE00FB490989411A56
:103B8000F94880886043B0FBF1F0F749A1F874036D
:103B9000F64800880A2802DA0020A1F87403F248E7
:103BA000B0F87403F0498988884204DDEE488088C3
:103BB000ED49A1F87403ED484088EB4949898842F2
:103BC00006DDEA484088E8494989401A85B200E0A4
:103BD0000025E6480088E449A1F81A03E348408834
:103BE000A1F81C030846B0F8CE004989411ADE4806
:103BF00040886843B0FBF1F00A21B0FBF1F0DA49EC
:103C0000A1F87A030846B0F874030A2190FBF1F09A
:103C1000D549A1F894020846408E022805D10846ED
:103C2000B0F87403A1F83C030AE0CF48B0F87A0377
:103C3000CD49A1F83C030846B0F83C03A1F89A022C
:103C4000C948B0F874030A2190FBF1F0C649A1F805
:103C50003A033EBD10B5C448B0F83803B0F57A7FDA
:103C600004DD4FF47A70C049A1F83803BE48B0F8BB
:103C70003E43B0F83E432146BD48FEF7F3FC10BD7D
:103C800010B540F67D40B849A1F8040240F2E97051
:103C9000A1F8060240F25D20A1F808020020B54913
:103CA00008804FF47A70B0490886B3490880B34958
:103CB0000880B3490880B34908800120B2490880D0
:103CC0000020B2490860B2490870B2490870B24990
:103CD0000870A548B0F84203A349A1F854030A208C
:103CE00009F04EFA10BD10B50320AC4908704FF42E
:103CF000FF7200219C4802F021FD08224FF402715E
:103D0000A74802F01BFD30224FF40371A448F43899
:103D100002F014FD04224FF40C71A148AA3802F0FD
:103D20000DFD9148B0F8A0028F49B1F8A21200EB46
:103D300001409C490860084600680AF06FF89A49FB
:103D4000086089488089B0F5165F03D04FF416509B
:103D50008549888110BD2DE9F04105460C4616467F
:103D6000FDF771F93520FDF709FC2846FDF7B0F99C
:103D7000002708E034F8028B2846AD1C4146FDF7C9
:103D8000AAFA781C87B2B742F4DBFDF768F9BDE800
:103D9000F08110B5002305E031F8024B20F8024B0A
:103DA0005C1CA3B29342F7DB10BD30B51346002470
:103DB00005E011F8012B00F8012B651CACB29C4208
:103DC000F7DB30BD10B579480078012819D1784863
:103DD0000078B0B900206449A1F8000203206F49BF
:103DE00008704FF4FF7200215F4802F087FC112039
:103DF0005D49A1F8000201206D49087000206B495F
:103E000008705948B0F8000241F28831884217D151
:103E100067480078A0B900205349A1F800020320A8
:103E20005E4908704FF4FF7200214F4802F066FCB3
:103E300041F288304C49A1F8000201205C49087029
:103E40005C4840785C490978884230D0584800780E
:103E500068B3584840785849087058480088401C52
:103E6000564908800846008896280CDD504800789E
:103E7000012808D102204E49087041F270703A4979
:103E8000A1F8000213E04D480088B0F5967F0EDDE2
:103E90004748007802280AD164204749087000206A
:103EA00046490880424908702F49A1F8000210BD18
:103EB00010B500242C48B0F80002B0F5FA6F0BD111
:103EC0002948B0F8020241F2E101884204D13C489D
:103ED000007808B9012430E02348808AB0F5FA6FF1
:103EE0000CDD2148408AB0F5FA6F07DD34480078D0
:103EF00020B9022401202D4908701EE01A48808A4A
:103F000050B91948408A38B92D48007820B903249F
:103F100001202649087010E013488089B0F5614FF0
:103F20000BDD1148C089B0F5614F06DD24480078EB
:103F300018B9042401201D490870002C4FDDFF2210
:103F400020490948FFF725FF18480078E0BB4FF4E7
:103F5000FA600549A1F8000241F2E100A1F802026D
:103F60000120174908703AE0E2010020D201002048
:103F7000000800409A000020520000205400002059
:103F80005600002058000020A0000020A8000020BB
:103F9000D0000020E6000020E700002060000020A4
:103FA0002C050020AC000020C80000208A00002062
:103FB00088000020C001002085000020860000202D
:103FC0008400002092E10008FFE70020FE4908700D
:103FD0004FF47A70FD49A1F80202FFF7F3FEFC48A6
:103FE0008078FC49097888422FD0FB48007860B37C
:103FF000F7488078F7490870F8480088401CF7496E
:1040000008800846008802280CDDF3480078012863
:1040100008D10220F049087041F27070EB49A1F814
:10402000020212E0ED48008804280EDDEA4800781C
:1040300002280AD16420E74908700020E749088077
:10404000E5490870E149A1F8020210BDDF48B0F867
:104050000002B0F5FA6F21D1DD488078E049097897
:1040600088421BD0D9488089B0F5345F16D0D84833
:104070008078DB490870DB480088401CD9490880FB
:1040800008460088B0F5617F08DD6420D4490870D7
:104090000020D44908800120D34908707047704738
:1040A0002DE9F04F87B0CA480078D0490978884296
:1040B00070D0C648B0F88A0501286BD1C348B0F863
:1040C0003603C249B1F83C13401A002815DDBF4938
:1040D000B1F8680009F0A2FE0690BC49B1F86A0088
:1040E00009F09CFE0590B949B1F86C0009F096FE04
:1040F0000546B648B0F86A9014E0B449B1F8F80043
:1041000009F08CFE0690B149B1F8FA0009F086FE7C
:104110000590AE49B1F8FC0009F080FE0546AB48B9
:10412000B0F8FA90AA480078B0490870B048008802
:10413000401CAF49088008460088484516DD6420C9
:10414000AA4908700020AA490880A048B0F88A054A
:1041500068B9A848007850B900209C49A1F83E03EE
:10416000A548008809F05AFEA4490860A5E0A448C3
:10417000007880B19548B0F8C8009449C98F484389
:104180004FF47A71B0FBF1F01FFA80FB8F48A0F872
:104190003EB392E0ABE09B4800780028E6D19A4815
:1041A00000780028E2D1994800780028DED19848AC
:1041B00000780028DAD18548B0F83CA3B0F836037F
:1041C000A0EB0A0006B2304609F010FE04900499F4
:1041D000069809F06BFE8F49039009F025FD04460F
:1041E000DDE9051009F062FE2946009009F01CFD8A
:1041F0000190049909F05AFE8649029009F014FDD5
:1042000003907E480168039809F0A0FC804641466F
:10421000204609F09BFC07466C49B1F8CC0009F038
:10422000FDFD3946039009F00DFE11D26749B1F842
:10423000CC0009F0F3FD07466449B1F8CC0009F061
:10424000EDFD2146039009F02FFF6C4908602EE038
:104250006948008809F0E2FD3946039009F0F2FE52
:1042600017D8002E15DA6C48007890B162480088A3
:1042700009F0D4FD07466048008809F0CFFD03909F
:1042800084F000400290039909F060FC5B490860EB
:104290000DE00021384609F0D5FD05D2002784F055
:1042A00000405649086002E05448C0F80080384693
:1042B00009F07CFD4549A1F83E034448408E0128A1
:1042C00015D15648007890B94048B0F8C8003F4929
:1042D000898E48434FF47A71B0FBF1F03B49A1F865
:1042E0003E03B1F83E0309F099FD4449086007B068
:1042F000BDE8F08F2DE9F04F93B03448C0883349C2
:10430000A1F836030846408E022801D1FFF7C8FE07
:104310002E48B0F80E02052818D115202B49A1F817
:104320000E0201F25625002404E0002025F81400B6
:10433000601C84B2182CF8DB394D002404E0002006
:1043400025F81400601C84B2182CF8DB1F48B0F864
:104350000A0205280ED116201C49A1F80A0201F50F
:104360002875002404E0002025F81400601C84B2A5
:10437000022CF8DB1548B0F80A0205280ED11720E8
:104380001249A1F80A0201F24A35002404E0002093
:1043900025F81400601C84B2042CF8DB0C4840782B
:1043A0002049097888427DD0094840781D49087025
:1043B0001D480088401C1C49088008460088782851
:1043C00073DD6420174931E088000020E2010020FD
:1043D000C001002080000020840000208200002016
:1043E000890000208C0000208A000020F0000020BE
:1043F000F2000020F5000020F8000020EC00002072
:10440000FA000020FB000020FC000020FD0000203E
:10441000FE00002000007A44FF000020F70000208A
:104420003E050020BB000020BC00002008700020DA
:10443000FE490880FE49B1F8380309F0EFFC8246D6
:10444000FC4909F0F1FB8046FB4909F02FFD0746C6
:1044500009F0ACFCF649A1F852030846B0F88A0509
:1044600018B90020A1F8520312E0F148B0F88A050B
:1044700001280DD1FBF7CCFE0A2190FBF1F201FBE4
:104480001200EB49B1F852130844E949A1F852036C
:10449000E748B0F8520340F2D751884205DB08469E
:1044A000E34900E001E0A1F85203E148B0F802025C
:1044B0000B2803D14FF43450DD498881DC488089D2
:1044C000DB49B1F82413884206D0D9488089D849FD
:1044D000A1F8240300F0DAFED548C089D449B1F828
:1044E0002613884206D0D248C089D149A1F82603B4
:1044F00001F01DFBCE48B0F88A000A2190FBF1F2D2
:1045000001FB120070B1CA48B0F88A0090FBF1F0CC
:1045100086B206EB86004FF6FF7101EA4000C449FF
:10452000A1F88A00C248B0F890000A2190FBF1F28D
:1045300001FB120070B1BE48B0F8900090FBF1F0A2
:1045400086B206EB86004FF6FF7101EA4000B849DB
:10455000A1F89000B648B0F896000A2190FBF1F25D
:1045600001FB120070B1B248B0F8960090FBF1F078
:1045700086B206EB86004FF6FF7101EA4000AC49B7
:10458000A1F89600AA48B0F89C000A2190FBF1F22D
:1045900001FB120070B1A648B0F89C0090FBF1F04E
:1045A00086B206EB86004FF6FF7101EA4000A04993
:1045B000A1F89C00A1480078012811D100209F4952
:1045C000087003209E490870022206219848801D29
:1045D00002F094F81E209649A1F8B004FFF75FFDA1
:1045E0009348C08E012845D19148B0F88A0501282A
:1045F00040D1944880789449097888424AD09148BB
:104600008078914908708A48B0F84A03401C88496C
:10461000A1F84A030846B0F84A033C283ADB0020D8
:10462000A1F84A030846B0F84C03401CA1F84C031B
:104630000846B0F84C033C282CDB0020A1F84C03C2
:104640000846B0F84E034FF6FF71884207DA784803
:10465000B0F84E03401C7649A1F84E031AE0002042
:104660007349A1F84E030846B0F85003401CA1F866
:1046700050030FE06E48C08E37280BD100206C49E4
:10468000A1F84A03A1F84C03A1F84E03A1F8500386
:104690001520C8866648B0F88A0501282FD16948D8
:1046A00080786A490978884229D0664880786749C5
:1046B000087067480088401C6549088008460088E3
:1046C0000A281CDD642061490870002060490880C8
:1046D00003205B49087008224FF402715D4802F024
:1046E0000DF830224FF403715A48F43802F006F8FE
:1046F00004224FF40C715748AA3801F0FFFF5648C6
:104700000078012812D1002053490870484D2846EE
:10471000B0F842032946B1F8401325F811002846A5
:10472000B0F842032946A1F854032FE04048B0F8FE
:10473000000240F6B83188421AD13D48B0F8420331
:104740003B49B1F85413884212D000204249087006
:10475000374D2846B0F842032946B1F8401325F8F2
:1047600011002846B0F842032946A1F854030DE091
:104770002F4D2846B0F8400335F810002946A1F81F
:1047800042030846B0F84203A1F854032848B0F8A1
:104790008A05012803D100203049086006E024483A
:1047A000B0F88A0510B901202C4908602048B0F8FB
:1047B0008A05012803D11E49A1F88C0507E01C4891
:1047C000B0F88A0518B900201949A1F88C051848D5
:1047D000B0F8A8021649A1F878050846B0F8AA0270
:1047E000A1F87A050846B0F8AC02A1F87C050846A5
:1047F000B0F8B402A1F87E050846B0F8B602A1F8F8
:1048000080050846B0F8B802A1F882050846B0F85D
:104810006202A1F884050846B0F86402A1F8860592
:104820000846B0F87403A1F8880519E0BC00002020
:10483000E201002000007A4400A0B9446800002092
:1048400060000020C0010020B6000020B70000205A
:10485000B80000202C05002069000020A081214222
:104860000846008F00BBFE48008800281CDD0120A0
:10487000FC490860FC484078FC490978884213D01C
:10488000F9484078F9490870F5480088401CF44917
:1048900008800846008842F6E061884204DD002076
:1048A000EF490880EF490860F148008F052809D1D9
:1048B000F048007830B90120EE4908700020E9493D
:1048C000086005E0EA48008F012801D1E549086049
:1048D000E9480088E649A1F8A402E7480068000C0E
:1048E000A1F8A602E548006808B1012400E0002410
:1048F000DD488078E2490978884223D0DA48807818
:10490000DF490870DF48006809F088FA8046DE4910
:1049100009F08AF90746DD480168384609F016F9BA
:10492000DA4908600846006809F040FAD84908608A
:1049300008460068000CCE49A1F8A202D4480088BD
:10494000A1F8A002C8484078D249097888427DD0B1
:10495000C5484078CF490870CF480088401CCE49F0
:10496000088008460088642870DD002008801E202A
:10497000CA49088040F2DF20C9490880BC48B0F825
:1049800084031E282ADBBA48B0F88403B0F5387FC8
:1049900024DAB748B0F8380340F22621884201DB18
:1049A000012000E00020B249B1F83813B1F57A7F58
:1049B00001DC012100E00021084058B1AC48B0F80A
:1049C0003803A0F2262084B2A948B0F884031E3828
:1049D00086B206E0002440F2C12602E0002440F244
:1049E000C126AF480088AD490988401A401C04FB25
:1049F00000694FF4800101EB89090120A949087081
:104A000004224946A84801F0F1FDA7480078A749CB
:104A10000870A54840784870A34880788870A248FC
:104A2000C078C87008460068A1490860A149A0483C
:104A3000006809F03BFA074609F0B8F99E4908609A
:104A40008B48B0F8380300EB400000E0D7E14000AD
:104A5000642190FBF1F08649A1F886030846B0F87E
:104A60008A05012858D195480078E8BB0846C08BD4
:104A7000898B884248DD7C48807891490978884252
:104A800059D0794880788E4908708E480088401C3B
:104A90008C4908807648C08B098888420ADC00204F
:104AA000884908800120854908708748006887493F
:104AB000086024E06E48808B82490988884203DBC5
:104AC0000020704908601AE06E4800687A49096859
:104AD000884210D26648C08B6549898B401A764956
:104AE0000968B1FBF0F000E025E066490968084478
:104AF0006449086003E070480068624908606148E2
:104B000000687149086016E000205E4908600846A8
:104B100000686D4908600EE05548B0F88A0550B944
:104B20000020664908706749088063490860554954
:104B30000860654908606148007801285CD15E48DA
:104B400000686249096888421DD94949B1F8D40012
:104B500009F064F98246584909685C4A1268881A63
:104B600009F05CF98346514609F0A0F980465149A5
:104B700009F05AF8074609F019F954490968084438
:104B80004D4908601CE03A49B1F8D40009F046F9F3
:104B900082464E490968484A1268881A09F03EF967
:104BA0008346514609F082F98046424909F03CF8B3
:104BB000074609F0FBF845490968081A3E490860AC
:104BC0003D480068414908603B4800682D4908603D
:104BD000084600680B280CD3FBF71AFB322190FB28
:104BE000F1F201FB120027490968084436490860C0
:104BF00002E0002034490860334800881C49A1F8CD
:104C00009C0231480068000CA1F89E02B1F83212F3
:104C1000174AB2F8342201EB024009F0FFF8129073
:104C20004FF07E50224908601148B0F884031B49B8
:104C3000098888427DDB0E48B0F88403184909884A
:104C4000884276DC0A49488F09F0E8F8074608F000
:104C500051FFCDE90E01129808F04CFF074637E0EE
:104C6000A000002080812142C00100209E00002081
:104C7000E2010020E6000020A80000202C012142D3
:104C8000C4000020D400002000A00C47C800002071
:104C9000AC000020B2000020B40000200E01002073
:104CA000100100206000002004010020000100200D
:104CB000C00000200000C842D8000020E70000200B
:104CC000E8000020EA000020DC000020E0000020D6
:104CD0004FF06632F74B08F019FDCDE90A01F649AD
:104CE000B1F8840309F09AF8074608F003FFCDE90C
:104CF0000601F248006809F091F8824608F0FAFED1
:104D0000CDE90001EE48006808F0F4FE8246ED4A65
:104D1000ED4B08F0FBFC0746DDE9002308F0F6FC4C
:104D20000022EA4BCDE9020108F058FBCDE904016D
:104D300000E015E0DDE9062308F0E8FCCDE9080114
:104D4000DDE90A2308F04AFBCDE90C01DDE90E2379
:104D500008F0DCFCCDE9100108F066FAD8490860DB
:104D6000DB49D748006809F0A1F8074609F01EF8AA
:104D7000D149A1F898020846B0F89802898F884274
:104D80000CDDFBF745FA322190FBF1F201FB12003A
:104D9000C949898F0844C849A1F89802C648B0F8A3
:104DA000380340F2EE2188422ADBC348B0F898026B
:104DB00042F23411884204DDBF48B0F89802C54978
:104DC0000880C448008842F23411884202DA08465A
:104DD000C0490880B848B0F8980242F234118842BD
:104DE00069DAFBF715FA322190FBF1F201FB1201AF
:104DF000B848008832380844AF49A1F898025AE010
:104E0000AD48B0F83803B0F5FA7F2ADBAA48B0F80D
:104E1000980241F64C51884204DDA748B0F8980248
:104E2000AC490880AB48008841F64C51884202DA10
:104E30000846A8490880A048B0F8980241F64C51AD
:104E4000884238DAFBF7E4F9322190FBF1F201FBFA
:104E50001201A0480088323808449749A1F8980206
:104E600029E09548B0F8980241F66411884204DDC3
:104E70009148B0F89802974908809648008841F612
:104E80006411884202DA0846924908808A48B0F8DC
:104E9000980241F6641188420DDAFBF7B9F9322124
:104EA00090FBF1F201FB12018A4800883238084475
:104EB0008149A1F8980213B0BDE8F08F7E4880893F
:104EC000B0F5166F21D07C488089B0F5965F1CD074
:104ED00079488089B0F5165F17D077488089B0F59A
:104EE000964F12D074488089B0F5164F0DD0724895
:104EF0008089B0F5614F08D06F488089B0F5345F84
:104F000003D04FF416506C4988816B48C089B0F5C6
:104F1000166F1CD06848C089B0F5965F17D06648F8
:104F2000C089B0F5165F12D06348C089B0F5964FBE
:104F30000DD06148C089B0F5164F08D05E48C089D1
:104F4000B0F5614F03D04FF416505B49C8815A4801
:104F5000008D032802DB0020574908855648408D04
:104F600050B15548408D012806D05348408D022845
:104F700002D00020504948854F48808D032803DA2D
:104F80004D48808D012802DA02204B4988854A4825
:104F9000808A642802DD0020474988824648408A8A
:104FA000B0F57A7F02DC4448408A10B902204249B9
:104FB00048824148008AB0F57A7F02DC3E48008A88
:104FC00010B901203C4908823B48408FB0F5FA7F78
:104FD00003DC3948408F322802DA6420364948879A
:104FE0003548808F47F23051884205DC3248808F47
:104FF00041F28831884203DA42F208502E4988870C
:105000002D48808B642803DC2B48808B012802DA32
:105010000F20294988832848C08BB0F57A7F03DCAC
:105020002548C08B0A2802DA1E202349C88322485B
:10503000B0F8D400C82804DC1F48B0F8D400012818
:1050400003DA04201C49A1F8D40070472248807874
:105050003C282EDB0020204988700846C078401C80
:10506000C8700846C0783C2823DB0020C87008467A
:105070000079401C087108460079182819DB0020C7
:10508000087108464079401C4871084640791E283E
:105090000FDD0120487108468079401C8871084660
:1050A00080790C2805DD012088710846C079401CF4
:1050B000C871704766662040E2010020D4000020DD
:1050C000C00000201F85EB51B89E234000004240E5
:1050D0000000C8420C010020C0010020534A1268A1
:1050E000127803781A440379D21A037A1A440A70A0
:1050F0004E4A1268527843781A4043795A40437AAC
:105100001A434A70827883795A40837A5A40474BCF
:105110001B689B781A438A70444A1268D278C37815
:10512000D21AC3791A44C37A1A40CA70704700B5BC
:105130003F48404908604048006880783F4908700F
:105140003D480068C07848703B48006880798870A6
:1051500039480068C079C87037480068007908711C
:10516000354800684079487133480068807A887112
:1051700031480068C07AC8712F480068007808720A
:105180002D480068407848722B480068007A887281
:1051900029480068407AC87229492848FFF79EFFCD
:1051A00027480078274909680978884218D1244897
:1051B0004078244909684978884211D1204880788C
:1051C00020490968897888420AD11D48C0781D495C
:1051D0000968C978884203D101201B49087002E0A0
:1051E00000201949087000BDF8B504460D466E460A
:1051F0000020164908800C21204600F088F8009015
:105200003078287070786870084800688078A178D5
:10521000484061784840A87004480068C078E17848
:10522000484021784840E870F8BD704724010020CC
:10523000FF0011001C01002014010020C80E0020F6
:1052400020010020180100202A0100202801002050
:1052500008B54FF40070ADF8000003208DF802008F
:1052600018208DF803006946FE48FBF77BFB4FF4DE
:105270008060ADF8000003208DF8020004208DF856
:1052800003006946F748FBF76DFB08BD1FB5F648FC
:10529000FBF7B6FC6846FBF75FFDF4488089B0F584
:1052A000345F03D14FF4E130009002E04FF4165028
:1052B00000900020ADF80400ADF80600ADF808003D
:1052C000ADF80C000C20ADF80A006946E648FBF783
:1052D000DAFC012240F22551E348FBF76CFD002285
:1052E00040F22661E048FBF766FD0121DE48FBF74E
:1052F00056FD1FBD10B5FFF7ABFFFFF7C7FF00203E
:10530000DB490880DB490880DB49087010BDF0B537
:105310000246FF23FF240025002009E012F8016B5C
:1053200086EA0305D54E765D86EA0403D44E745DA5
:105330000E1EA1F10107B9B2F0D144EA0326B0B2C2
:10534000F0BD2DE9F0410027CA480088002877DD2C
:10535000CC480078CC490978884271D00020C649F1
:105360000870C8480078C8490870C8480088401CC0
:10537000C6490880084600882328E8DD002240F25C
:105380002551B948FBF717FDBA480088022802DC0E
:105390000320B8490880B748008840F20A41884293
:1053A00004DBB4480088401EB2490880B148008838
:1053B000B74908800020B5490880B548008840F208
:1053C0000A41884273DCB3480078022803D0B14810
:1053D000007803286CD1AE480088801E81B2AD48A9
:1053E000FFF795FF04462512E6B2A9480088801E03
:1053F000A849085CA84271D1A5480088401E085CF5
:10540000B0426BD10846407803281AD10120A24946
:105410000870A0488478C07800EB04209F49088079
:105420009C488479C07900EB04209049A1F884035A
:105430009848047A407A00EB0420A1F8380352E03F
:105440005AE09448407810280DD1002094490880F3
:105450000120944908708F488478C07800EB0420BC
:105460008E4908803FE08B484078112806D1002003
:105470008B49088001208C49087034E085484078C9
:10548000012802D1894908702DE082484078062819
:105490000FD10020824908800120854908707D488D
:1054A0008478C07800EB04207C4908801BE019E078
:1054B00016E0784840784A280ED1002078490880C4
:1054C00001207B49087073488478C07800EB042081
:1054D0007249088007E001E0012704E0022702E0AA
:1054E000032700E00427012240F225515E48FBF724
:1054F00062FC00205F490880002F0EDD002404E0DC
:10550000002064490855601C84B2142CF8DB012289
:1055100040F225515448FBF74EFCBDE8F0812DE9DF
:10552000FF5F002002905C480078002861D04F485F
:10553000B0F81002401C4D49A1F8100255480078FF
:105540005C4908705348407848705248407940069A
:10555000000E8870454801908A46002410E04F49AB
:105560000988019800EB410030F8146031120AF10B
:10557000030000F8141000EB44004670601CC4B235
:1055800044484079A042EADC4A488078C11C494836
:10559000FFF7BDFE484908800846008801124548CB
:1055A0008078C01C434A11544348017810468078E3
:1055B000001D115410468078401D4049088000208D
:1055C000354908702A49088001202B49087028486D
:1055D00002880088401C264B18803648815C22488F
:1055E000FBF74AFC012240F226611F48FBF7E3FB70
:1055F00031E22C48007818B92D48007800287BD07B
:105600001A48B0F81002401C1849A1F810022348AB
:105610000088B0F5807F24D02048008840F2011136
:1056200088421ED01D48008840F20D11884218D0D3
:105630001A480088B0F5877F13D018480088B0F565
:10564000D07F0ED015480088B0F5CC7F09D0134824
:1056500000880C2805D01148008840F2C5218842F6
:1056600031D12DE00008014000380140E201002066
:105670002E0100202C0100204001002090E30008B2
:1056800090E40008C00100203D0100203E01002000
:1056900030010020D40F0020380100203601002006
:1056A0008C000020390100205E0100203A0100201A
:1056B0003B010020D40E00203401002032010020E4
:1056C0000120029046E0F0480088032802D1012022
:1056D00002903FE0EC48008840F2A11188420CD1D2
:1056E000EA48B0F8000240F6B831884205D10120FE
:1056F0000290E74908702DE0BAE0E3480088B0F571
:10570000D17F0AD0E048008840F2A311884204D03B
:10571000DD480088B0F5D27F09D1DC48B0F800023E
:1057200040F6B831884215D10120029012E0D648E7
:105730000088192803D0D44800881A2802D10120F3
:10574000029007E0D148B0F80002B0F5FA6F01D13D
:1057500001200290029800B3CB480088B0F5C37FC7
:105760000DDBC9480088B0F5C67F08DCC648008854
:10577000A0F5C370C74908800120C7490870C74811
:10578000007858B1C6480679407900EB062081B20E
:10579000BE48BD4A128820F8121025E0C1480078A2
:1057A00010B3BF48407964281EDADFF8F4B2B74876
:1057B0000090002414E00BF1070010F8146000EBD7
:1057C000440040780390039800EB062081B2AE4A73
:1057D0001288009800EB420020F81410601CC4B23C
:1057E000AF484079A042E6DC0220AF490870AC48DF
:1057F00040784870AA4880788870A948C078C870F6
:10580000A74800790871A64840794871029810B9F4
:10581000FF20087148710621A348FFF778FDA349CE
:1058200008800846008800129F4988719F480078C8
:10583000C87108209E49088000209A49087097493D
:1058400008709C49088001209B490870994802888B
:105850000088401C974B18809348815C9748FBF761
:105860000BFB012240F226619448FBF7A4FAF2E018
:10587000934800780028FAD08448B0F81002401C01
:105880008249A1F8100286488678C07800EB062984
:1058900083480779407900EB072087B2B9F1000F00
:1058A00001D0A9F1010909FB07F8B9F1000F2FD1C7
:1058B0000120844908703A4608F58001824800F0CA
:1058C00095FE002081490870002509E07E48405D72
:1058D000FF2803D001207D49087003E0681C85B2D1
:1058E000BD42F3DB00BF7948007888B100240AE0AC
:1058F0004FF4800101EB0441481C00F09BFDFDF7D3
:10590000C0FB601CC4B2402CF2DB00206F49087061
:1059100063480779407900EB072087B20120694985
:1059200008703A4608F580015D48801D00F0CDFD05
:105930000120644908703A4608F58001624800F089
:1059400055FE00206249087000250CE05E48415D6C
:10595000A81D534A105C814203D001205C490870A5
:1059600003E0681C85B2BD42F0DB00BFFDF789FB98
:1059700057480078012826D1524908703A4608F560
:1059800080014748801D00F0A0FD01204D490870AE
:105990003A4608F580014C4800F028FE00204C49AA
:1059A000087000250CE04848415DA81D3C4A105C89
:1059B000814203D002204649087003E0681C85B28A
:1059C000BD42F0DB00BF42480078E0BB0220364910
:1059D0000870334840784870314880788870304883
:1059E000C078C8702E48007908712D4840794871F8
:1059F00006212D48FFF78BFC2C49088008460088BB
:105A000000122949887129480078C871082028495E
:105A1000088000202A49087026490880012026496C
:105A20000870244802880088401C224B18801E48B9
:105A3000815C2248FBF720FA012240F226611F48D0
:105A4000FBF7B9F907E0FFE700201D490870194985
:105A5000088019490870BDE8FF9F704770B504467B
:105A60000D4601201B490860E1B21448FBF704FA17
:105A700000BF40211148FBF76DFA0028F9D0002043
:105A800014490860204670BD36010020E201002064
:105A90006900002064000020620000203B0100201B
:105AA000D40F002039010020D40E00203401002042
:105AB000320100202E01002040010020003801406A
:105AC0005E01002060000020DE1300205C01002049
:105AD0005D0100208C81224208B50820ADF800004D
